
encoder_wd2.elf:     file format elf32-avr

Sections:
Idx Name          Size      VMA       LMA       File off  Algn
  0 .data         0000001a  00800200  000005fe  00000692  2**0
                  CONTENTS, ALLOC, LOAD, DATA
  1 .text         000005fe  00000000  00000000  00000094  2**1
                  CONTENTS, ALLOC, LOAD, READONLY, CODE
  2 .bss          00000010  0080021a  0080021a  000006ac  2**0
                  ALLOC
  3 .comment      00000030  00000000  00000000  000006ac  2**0
                  CONTENTS, READONLY
  4 .note.gnu.avr.deviceinfo 00000040  00000000  00000000  000006dc  2**2
                  CONTENTS, READONLY
  5 .debug_aranges 00000098  00000000  00000000  0000071c  2**0
                  CONTENTS, READONLY, DEBUGGING
  6 .debug_info   000014cc  00000000  00000000  000007b4  2**0
                  CONTENTS, READONLY, DEBUGGING
  7 .debug_abbrev 00000d1c  00000000  00000000  00001c80  2**0
                  CONTENTS, READONLY, DEBUGGING
  8 .debug_line   0000079a  00000000  00000000  0000299c  2**0
                  CONTENTS, READONLY, DEBUGGING
  9 .debug_frame  0000015c  00000000  00000000  00003138  2**2
                  CONTENTS, READONLY, DEBUGGING
 10 .debug_str    00000772  00000000  00000000  00003294  2**0
                  CONTENTS, READONLY, DEBUGGING
 11 .debug_loc    000007ff  00000000  00000000  00003a06  2**0
                  CONTENTS, READONLY, DEBUGGING
 12 .debug_ranges 000000a0  00000000  00000000  00004205  2**0
                  CONTENTS, READONLY, DEBUGGING

Disassembly of section .text:

00000000 <__vectors>:
   0:	71 c0       	rjmp	.+226    	; 0xe4 <__ctors_end>
   2:	00 00       	nop
   4:	8e c0       	rjmp	.+284    	; 0x122 <__bad_interrupt>
   6:	00 00       	nop
   8:	8c c0       	rjmp	.+280    	; 0x122 <__bad_interrupt>
   a:	00 00       	nop
   c:	8a c0       	rjmp	.+276    	; 0x122 <__bad_interrupt>
   e:	00 00       	nop
  10:	88 c0       	rjmp	.+272    	; 0x122 <__bad_interrupt>
  12:	00 00       	nop
  14:	b5 c2       	rjmp	.+1386   	; 0x580 <__vector_5>
  16:	00 00       	nop
  18:	ca c2       	rjmp	.+1428   	; 0x5ae <__vector_6>
  1a:	00 00       	nop
  1c:	82 c0       	rjmp	.+260    	; 0x122 <__bad_interrupt>
  1e:	00 00       	nop
  20:	80 c0       	rjmp	.+256    	; 0x122 <__bad_interrupt>
  22:	00 00       	nop
  24:	7e c0       	rjmp	.+252    	; 0x122 <__bad_interrupt>
  26:	00 00       	nop
  28:	7c c0       	rjmp	.+248    	; 0x122 <__bad_interrupt>
  2a:	00 00       	nop
  2c:	7a c0       	rjmp	.+244    	; 0x122 <__bad_interrupt>
  2e:	00 00       	nop
  30:	78 c0       	rjmp	.+240    	; 0x122 <__bad_interrupt>
  32:	00 00       	nop
  34:	76 c0       	rjmp	.+236    	; 0x122 <__bad_interrupt>
  36:	00 00       	nop
  38:	74 c0       	rjmp	.+232    	; 0x122 <__bad_interrupt>
  3a:	00 00       	nop
  3c:	72 c0       	rjmp	.+228    	; 0x122 <__bad_interrupt>
  3e:	00 00       	nop
  40:	70 c0       	rjmp	.+224    	; 0x122 <__bad_interrupt>
  42:	00 00       	nop
  44:	6e c0       	rjmp	.+220    	; 0x122 <__bad_interrupt>
  46:	00 00       	nop
  48:	6c c0       	rjmp	.+216    	; 0x122 <__bad_interrupt>
  4a:	00 00       	nop
  4c:	6a c0       	rjmp	.+212    	; 0x122 <__bad_interrupt>
  4e:	00 00       	nop
  50:	68 c0       	rjmp	.+208    	; 0x122 <__bad_interrupt>
  52:	00 00       	nop
  54:	66 c0       	rjmp	.+204    	; 0x122 <__bad_interrupt>
  56:	00 00       	nop
  58:	64 c0       	rjmp	.+200    	; 0x122 <__bad_interrupt>
  5a:	00 00       	nop
  5c:	62 c0       	rjmp	.+196    	; 0x122 <__bad_interrupt>
  5e:	00 00       	nop
  60:	60 c0       	rjmp	.+192    	; 0x122 <__bad_interrupt>
  62:	00 00       	nop
  64:	5e c0       	rjmp	.+188    	; 0x122 <__bad_interrupt>
  66:	00 00       	nop
  68:	5c c0       	rjmp	.+184    	; 0x122 <__bad_interrupt>
  6a:	00 00       	nop
  6c:	5a c0       	rjmp	.+180    	; 0x122 <__bad_interrupt>
  6e:	00 00       	nop
  70:	58 c0       	rjmp	.+176    	; 0x122 <__bad_interrupt>
  72:	00 00       	nop
  74:	56 c0       	rjmp	.+172    	; 0x122 <__bad_interrupt>
  76:	00 00       	nop
  78:	54 c0       	rjmp	.+168    	; 0x122 <__bad_interrupt>
  7a:	00 00       	nop
  7c:	52 c0       	rjmp	.+164    	; 0x122 <__bad_interrupt>
  7e:	00 00       	nop
  80:	50 c0       	rjmp	.+160    	; 0x122 <__bad_interrupt>
  82:	00 00       	nop
  84:	4e c0       	rjmp	.+156    	; 0x122 <__bad_interrupt>
  86:	00 00       	nop
  88:	4c c0       	rjmp	.+152    	; 0x122 <__bad_interrupt>
  8a:	00 00       	nop
  8c:	4a c0       	rjmp	.+148    	; 0x122 <__bad_interrupt>
  8e:	00 00       	nop
  90:	48 c0       	rjmp	.+144    	; 0x122 <__bad_interrupt>
  92:	00 00       	nop
  94:	46 c0       	rjmp	.+140    	; 0x122 <__bad_interrupt>
  96:	00 00       	nop
  98:	44 c0       	rjmp	.+136    	; 0x122 <__bad_interrupt>
  9a:	00 00       	nop
  9c:	42 c0       	rjmp	.+132    	; 0x122 <__bad_interrupt>
  9e:	00 00       	nop
  a0:	40 c0       	rjmp	.+128    	; 0x122 <__bad_interrupt>
  a2:	00 00       	nop
  a4:	3e c0       	rjmp	.+124    	; 0x122 <__bad_interrupt>
  a6:	00 00       	nop
  a8:	3c c0       	rjmp	.+120    	; 0x122 <__bad_interrupt>
  aa:	00 00       	nop
  ac:	3a c0       	rjmp	.+116    	; 0x122 <__bad_interrupt>
  ae:	00 00       	nop
  b0:	38 c0       	rjmp	.+112    	; 0x122 <__bad_interrupt>
  b2:	00 00       	nop
  b4:	36 c0       	rjmp	.+108    	; 0x122 <__bad_interrupt>
  b6:	00 00       	nop
  b8:	34 c0       	rjmp	.+104    	; 0x122 <__bad_interrupt>
  ba:	00 00       	nop
  bc:	32 c0       	rjmp	.+100    	; 0x122 <__bad_interrupt>
  be:	00 00       	nop
  c0:	30 c0       	rjmp	.+96     	; 0x122 <__bad_interrupt>
  c2:	00 00       	nop
  c4:	2e c0       	rjmp	.+92     	; 0x122 <__bad_interrupt>
  c6:	00 00       	nop
  c8:	2c c0       	rjmp	.+88     	; 0x122 <__bad_interrupt>
  ca:	00 00       	nop
  cc:	2a c0       	rjmp	.+84     	; 0x122 <__bad_interrupt>
  ce:	00 00       	nop
  d0:	28 c0       	rjmp	.+80     	; 0x122 <__bad_interrupt>
  d2:	00 00       	nop
  d4:	26 c0       	rjmp	.+76     	; 0x122 <__bad_interrupt>
  d6:	00 00       	nop
  d8:	24 c0       	rjmp	.+72     	; 0x122 <__bad_interrupt>
  da:	00 00       	nop
  dc:	22 c0       	rjmp	.+68     	; 0x122 <__bad_interrupt>
  de:	00 00       	nop
  e0:	20 c0       	rjmp	.+64     	; 0x122 <__bad_interrupt>
	...

000000e4 <__ctors_end>:
  e4:	11 24       	eor	r1, r1
  e6:	1f be       	out	0x3f, r1	; 63
  e8:	cf ef       	ldi	r28, 0xFF	; 255
  ea:	d1 e2       	ldi	r29, 0x21	; 33
  ec:	de bf       	out	0x3e, r29	; 62
  ee:	cd bf       	out	0x3d, r28	; 61
  f0:	00 e0       	ldi	r16, 0x00	; 0
  f2:	0c bf       	out	0x3c, r16	; 60

000000f4 <__do_copy_data>:
  f4:	12 e0       	ldi	r17, 0x02	; 2
  f6:	a0 e0       	ldi	r26, 0x00	; 0
  f8:	b2 e0       	ldi	r27, 0x02	; 2
  fa:	ee ef       	ldi	r30, 0xFE	; 254
  fc:	f5 e0       	ldi	r31, 0x05	; 5
  fe:	00 e0       	ldi	r16, 0x00	; 0
 100:	0b bf       	out	0x3b, r16	; 59
 102:	02 c0       	rjmp	.+4      	; 0x108 <__do_copy_data+0x14>
 104:	07 90       	elpm	r0, Z+
 106:	0d 92       	st	X+, r0
 108:	aa 31       	cpi	r26, 0x1A	; 26
 10a:	b1 07       	cpc	r27, r17
 10c:	d9 f7       	brne	.-10     	; 0x104 <__do_copy_data+0x10>

0000010e <__do_clear_bss>:
 10e:	22 e0       	ldi	r18, 0x02	; 2
 110:	aa e1       	ldi	r26, 0x1A	; 26
 112:	b2 e0       	ldi	r27, 0x02	; 2
 114:	01 c0       	rjmp	.+2      	; 0x118 <.do_clear_bss_start>

00000116 <.do_clear_bss_loop>:
 116:	1d 92       	st	X+, r1

00000118 <.do_clear_bss_start>:
 118:	aa 32       	cpi	r26, 0x2A	; 42
 11a:	b2 07       	cpc	r27, r18
 11c:	e1 f7       	brne	.-8      	; 0x116 <.do_clear_bss_loop>
 11e:	fc d1       	rcall	.+1016   	; 0x518 <main>
 120:	6c c2       	rjmp	.+1240   	; 0x5fa <_exit>

00000122 <__bad_interrupt>:
 122:	6e cf       	rjmp	.-292    	; 0x0 <__vectors>

00000124 <_Z12lcd_set_4bitv>:
	while(rmotor<=35);
	rmotor=0;
}
void forward()
{
	PORTA = (1<<PA1) | (1<<PA2); //go fwd
 124:	86 e6       	ldi	r24, 0x66	; 102
 126:	9e e0       	ldi	r25, 0x0E	; 14
 128:	01 97       	sbiw	r24, 0x01	; 1
 12a:	f1 f7       	brne	.-4      	; 0x128 <_Z12lcd_set_4bitv+0x4>
 12c:	00 00       	nop
 12e:	40 98       	cbi	0x08, 0	; 8
 130:	41 98       	cbi	0x08, 1	; 8
 132:	80 e3       	ldi	r24, 0x30	; 48
 134:	88 b9       	out	0x08, r24	; 8
 136:	42 9a       	sbi	0x08, 2	; 8
 138:	ef ef       	ldi	r30, 0xFF	; 255
 13a:	f7 e4       	ldi	r31, 0x47	; 71
 13c:	31 97       	sbiw	r30, 0x01	; 1
 13e:	f1 f7       	brne	.-4      	; 0x13c <_Z12lcd_set_4bitv+0x18>
 140:	00 c0       	rjmp	.+0      	; 0x142 <_Z12lcd_set_4bitv+0x1e>
 142:	00 00       	nop
 144:	42 98       	cbi	0x08, 2	; 8
 146:	e6 e6       	ldi	r30, 0x66	; 102
 148:	fe e0       	ldi	r31, 0x0E	; 14
 14a:	31 97       	sbiw	r30, 0x01	; 1
 14c:	f1 f7       	brne	.-4      	; 0x14a <_Z12lcd_set_4bitv+0x26>
 14e:	00 00       	nop
 150:	40 98       	cbi	0x08, 0	; 8
 152:	41 98       	cbi	0x08, 1	; 8
 154:	88 b9       	out	0x08, r24	; 8
 156:	42 9a       	sbi	0x08, 2	; 8
 158:	ef ef       	ldi	r30, 0xFF	; 255
 15a:	f7 e4       	ldi	r31, 0x47	; 71
 15c:	31 97       	sbiw	r30, 0x01	; 1
 15e:	f1 f7       	brne	.-4      	; 0x15c <_Z12lcd_set_4bitv+0x38>
 160:	00 c0       	rjmp	.+0      	; 0x162 <_Z12lcd_set_4bitv+0x3e>
 162:	00 00       	nop
 164:	42 98       	cbi	0x08, 2	; 8
 166:	e6 e6       	ldi	r30, 0x66	; 102
 168:	fe e0       	ldi	r31, 0x0E	; 14
 16a:	31 97       	sbiw	r30, 0x01	; 1
 16c:	f1 f7       	brne	.-4      	; 0x16a <_Z12lcd_set_4bitv+0x46>
 16e:	00 00       	nop
 170:	40 98       	cbi	0x08, 0	; 8
 172:	41 98       	cbi	0x08, 1	; 8
 174:	88 b9       	out	0x08, r24	; 8
 176:	42 9a       	sbi	0x08, 2	; 8
 178:	8f ef       	ldi	r24, 0xFF	; 255
 17a:	97 e4       	ldi	r25, 0x47	; 71
 17c:	01 97       	sbiw	r24, 0x01	; 1
 17e:	f1 f7       	brne	.-4      	; 0x17c <_Z12lcd_set_4bitv+0x58>
 180:	00 c0       	rjmp	.+0      	; 0x182 <_Z12lcd_set_4bitv+0x5e>
 182:	00 00       	nop
 184:	42 98       	cbi	0x08, 2	; 8
 186:	e6 e6       	ldi	r30, 0x66	; 102
 188:	fe e0       	ldi	r31, 0x0E	; 14
 18a:	31 97       	sbiw	r30, 0x01	; 1
 18c:	f1 f7       	brne	.-4      	; 0x18a <_Z12lcd_set_4bitv+0x66>
 18e:	00 00       	nop
 190:	40 98       	cbi	0x08, 0	; 8
 192:	41 98       	cbi	0x08, 1	; 8
 194:	80 e2       	ldi	r24, 0x20	; 32
 196:	88 b9       	out	0x08, r24	; 8
 198:	42 9a       	sbi	0x08, 2	; 8
 19a:	8f ef       	ldi	r24, 0xFF	; 255
 19c:	97 e4       	ldi	r25, 0x47	; 71
 19e:	01 97       	sbiw	r24, 0x01	; 1
 1a0:	f1 f7       	brne	.-4      	; 0x19e <_Z12lcd_set_4bitv+0x7a>
 1a2:	00 c0       	rjmp	.+0      	; 0x1a4 <_Z12lcd_set_4bitv+0x80>
 1a4:	00 00       	nop
 1a6:	42 98       	cbi	0x08, 2	; 8
 1a8:	08 95       	ret

000001aa <_Z14lcd_wr_commandh>:
 1aa:	98 b1       	in	r25, 0x08	; 8
 1ac:	9f 70       	andi	r25, 0x0F	; 15
 1ae:	98 b9       	out	0x08, r25	; 8
 1b0:	98 b1       	in	r25, 0x08	; 8
 1b2:	28 2f       	mov	r18, r24
 1b4:	20 7f       	andi	r18, 0xF0	; 240
 1b6:	92 2b       	or	r25, r18
 1b8:	98 b9       	out	0x08, r25	; 8
 1ba:	40 98       	cbi	0x08, 0	; 8
 1bc:	41 98       	cbi	0x08, 1	; 8
 1be:	42 9a       	sbi	0x08, 2	; 8
 1c0:	ef ef       	ldi	r30, 0xFF	; 255
 1c2:	f7 e4       	ldi	r31, 0x47	; 71
 1c4:	31 97       	sbiw	r30, 0x01	; 1
 1c6:	f1 f7       	brne	.-4      	; 0x1c4 <_Z14lcd_wr_commandh+0x1a>
 1c8:	00 c0       	rjmp	.+0      	; 0x1ca <_Z14lcd_wr_commandh+0x20>
 1ca:	00 00       	nop
 1cc:	42 98       	cbi	0x08, 2	; 8
 1ce:	98 b1       	in	r25, 0x08	; 8
 1d0:	9f 70       	andi	r25, 0x0F	; 15
 1d2:	98 b9       	out	0x08, r25	; 8
 1d4:	98 b1       	in	r25, 0x08	; 8
 1d6:	82 95       	swap	r24
 1d8:	80 7f       	andi	r24, 0xF0	; 240
 1da:	89 2b       	or	r24, r25
 1dc:	88 b9       	out	0x08, r24	; 8
 1de:	40 98       	cbi	0x08, 0	; 8
 1e0:	41 98       	cbi	0x08, 1	; 8
 1e2:	42 9a       	sbi	0x08, 2	; 8
 1e4:	8f ef       	ldi	r24, 0xFF	; 255
 1e6:	97 e4       	ldi	r25, 0x47	; 71
 1e8:	01 97       	sbiw	r24, 0x01	; 1
 1ea:	f1 f7       	brne	.-4      	; 0x1e8 <_Z14lcd_wr_commandh+0x3e>
 1ec:	00 c0       	rjmp	.+0      	; 0x1ee <_Z14lcd_wr_commandh+0x44>
 1ee:	00 00       	nop
 1f0:	42 98       	cbi	0x08, 2	; 8
 1f2:	08 95       	ret

000001f4 <_Z8lcd_initv>:
 1f4:	86 e6       	ldi	r24, 0x66	; 102
 1f6:	9e e0       	ldi	r25, 0x0E	; 14
 1f8:	01 97       	sbiw	r24, 0x01	; 1
 1fa:	f1 f7       	brne	.-4      	; 0x1f8 <_Z8lcd_initv+0x4>
 1fc:	00 00       	nop
 1fe:	88 e2       	ldi	r24, 0x28	; 40
 200:	d4 df       	rcall	.-88     	; 0x1aa <_Z14lcd_wr_commandh>
 202:	81 e0       	ldi	r24, 0x01	; 1
 204:	d2 df       	rcall	.-92     	; 0x1aa <_Z14lcd_wr_commandh>
 206:	86 e0       	ldi	r24, 0x06	; 6
 208:	d0 df       	rcall	.-96     	; 0x1aa <_Z14lcd_wr_commandh>
 20a:	8e e0       	ldi	r24, 0x0E	; 14
 20c:	ce df       	rcall	.-100    	; 0x1aa <_Z14lcd_wr_commandh>
 20e:	80 e8       	ldi	r24, 0x80	; 128
 210:	cc cf       	rjmp	.-104    	; 0x1aa <_Z14lcd_wr_commandh>
 212:	08 95       	ret

00000214 <_Z11lcd_wr_charc>:
 214:	98 b1       	in	r25, 0x08	; 8
 216:	9f 70       	andi	r25, 0x0F	; 15
 218:	98 b9       	out	0x08, r25	; 8
 21a:	98 b1       	in	r25, 0x08	; 8
 21c:	28 2f       	mov	r18, r24
 21e:	20 7f       	andi	r18, 0xF0	; 240
 220:	92 2b       	or	r25, r18
 222:	98 b9       	out	0x08, r25	; 8
 224:	40 9a       	sbi	0x08, 0	; 8
 226:	41 98       	cbi	0x08, 1	; 8
 228:	42 9a       	sbi	0x08, 2	; 8
 22a:	ef ef       	ldi	r30, 0xFF	; 255
 22c:	f7 e4       	ldi	r31, 0x47	; 71
 22e:	31 97       	sbiw	r30, 0x01	; 1
 230:	f1 f7       	brne	.-4      	; 0x22e <_Z11lcd_wr_charc+0x1a>
 232:	00 c0       	rjmp	.+0      	; 0x234 <_Z11lcd_wr_charc+0x20>
 234:	00 00       	nop
 236:	42 98       	cbi	0x08, 2	; 8
 238:	98 b1       	in	r25, 0x08	; 8
 23a:	9f 70       	andi	r25, 0x0F	; 15
 23c:	98 b9       	out	0x08, r25	; 8
 23e:	98 b1       	in	r25, 0x08	; 8
 240:	82 95       	swap	r24
 242:	80 7f       	andi	r24, 0xF0	; 240
 244:	89 2b       	or	r24, r25
 246:	88 b9       	out	0x08, r24	; 8
 248:	40 9a       	sbi	0x08, 0	; 8
 24a:	41 98       	cbi	0x08, 1	; 8
 24c:	42 9a       	sbi	0x08, 2	; 8
 24e:	8f ef       	ldi	r24, 0xFF	; 255
 250:	97 e4       	ldi	r25, 0x47	; 71
 252:	01 97       	sbiw	r24, 0x01	; 1
 254:	f1 f7       	brne	.-4      	; 0x252 <_Z11lcd_wr_charc+0x3e>
 256:	00 c0       	rjmp	.+0      	; 0x258 <_Z11lcd_wr_charc+0x44>
 258:	00 00       	nop
 25a:	42 98       	cbi	0x08, 2	; 8
 25c:	08 95       	ret

0000025e <_Z8lcd_homev>:
 25e:	80 e8       	ldi	r24, 0x80	; 128
 260:	a4 cf       	rjmp	.-184    	; 0x1aa <_Z14lcd_wr_commandh>
 262:	08 95       	ret

00000264 <_Z10lcd_stringPc>:
 264:	cf 93       	push	r28
 266:	df 93       	push	r29
 268:	ec 01       	movw	r28, r24
 26a:	88 81       	ld	r24, Y
 26c:	88 23       	and	r24, r24
 26e:	29 f0       	breq	.+10     	; 0x27a <_Z10lcd_stringPc+0x16>
 270:	21 96       	adiw	r28, 0x01	; 1
 272:	d0 df       	rcall	.-96     	; 0x214 <_Z11lcd_wr_charc>
 274:	89 91       	ld	r24, Y+
 276:	81 11       	cpse	r24, r1
 278:	fc cf       	rjmp	.-8      	; 0x272 <_Z10lcd_stringPc+0xe>
 27a:	df 91       	pop	r29
 27c:	cf 91       	pop	r28
 27e:	08 95       	ret

00000280 <_Z10lcd_cursorcc>:
 280:	82 30       	cpi	r24, 0x02	; 2
 282:	69 f0       	breq	.+26     	; 0x29e <_Z10lcd_cursorcc+0x1e>
 284:	18 f4       	brcc	.+6      	; 0x28c <_Z10lcd_cursorcc+0xc>
 286:	81 30       	cpi	r24, 0x01	; 1
 288:	31 f0       	breq	.+12     	; 0x296 <_Z10lcd_cursorcc+0x16>
 28a:	08 95       	ret
 28c:	83 30       	cpi	r24, 0x03	; 3
 28e:	59 f0       	breq	.+22     	; 0x2a6 <_Z10lcd_cursorcc+0x26>
 290:	84 30       	cpi	r24, 0x04	; 4
 292:	69 f0       	breq	.+26     	; 0x2ae <_Z10lcd_cursorcc+0x2e>
 294:	08 95       	ret
 296:	8f e7       	ldi	r24, 0x7F	; 127
 298:	86 0f       	add	r24, r22
 29a:	87 cf       	rjmp	.-242    	; 0x1aa <_Z14lcd_wr_commandh>
 29c:	08 95       	ret
 29e:	8f eb       	ldi	r24, 0xBF	; 191
 2a0:	86 0f       	add	r24, r22
 2a2:	83 cf       	rjmp	.-250    	; 0x1aa <_Z14lcd_wr_commandh>
 2a4:	08 95       	ret
 2a6:	83 e9       	ldi	r24, 0x93	; 147
 2a8:	86 0f       	add	r24, r22
 2aa:	7f cf       	rjmp	.-258    	; 0x1aa <_Z14lcd_wr_commandh>
 2ac:	08 95       	ret
 2ae:	83 ed       	ldi	r24, 0xD3	; 211
 2b0:	86 0f       	add	r24, r22
 2b2:	7b cf       	rjmp	.-266    	; 0x1aa <_Z14lcd_wr_commandh>
 2b4:	08 95       	ret

000002b6 <_Z9lcd_printccji>:
 2b6:	0f 93       	push	r16
 2b8:	1f 93       	push	r17
 2ba:	cf 93       	push	r28
 2bc:	df 93       	push	r29
 2be:	8a 01       	movw	r16, r20
 2c0:	e9 01       	movw	r28, r18
 2c2:	88 23       	and	r24, r24
 2c4:	11 f0       	breq	.+4      	; 0x2ca <_Z9lcd_printccji+0x14>
 2c6:	61 11       	cpse	r22, r1
 2c8:	02 c0       	rjmp	.+4      	; 0x2ce <_Z9lcd_printccji+0x18>
 2ca:	c9 df       	rcall	.-110    	; 0x25e <_Z8lcd_homev>
 2cc:	01 c0       	rjmp	.+2      	; 0x2d0 <_Z9lcd_printccji+0x1a>
 2ce:	d8 df       	rcall	.-80     	; 0x280 <_Z10lcd_cursorcc>
 2d0:	c5 30       	cpi	r28, 0x05	; 5
 2d2:	d1 05       	cpc	r29, r1
 2d4:	09 f0       	breq	.+2      	; 0x2d8 <_Z9lcd_printccji+0x22>
 2d6:	d1 c0       	rjmp	.+418    	; 0x47a <__LOCK_REGION_LENGTH__+0x7a>
 2d8:	98 01       	movw	r18, r16
 2da:	32 95       	swap	r19
 2dc:	22 95       	swap	r18
 2de:	2f 70       	andi	r18, 0x0F	; 15
 2e0:	23 27       	eor	r18, r19
 2e2:	3f 70       	andi	r19, 0x0F	; 15
 2e4:	23 27       	eor	r18, r19
 2e6:	a7 e4       	ldi	r26, 0x47	; 71
 2e8:	b3 e0       	ldi	r27, 0x03	; 3
 2ea:	78 d1       	rcall	.+752    	; 0x5dc <__umulhisi3>
 2ec:	96 95       	lsr	r25
 2ee:	87 95       	ror	r24
 2f0:	96 95       	lsr	r25
 2f2:	87 95       	ror	r24
 2f4:	96 95       	lsr	r25
 2f6:	87 95       	ror	r24
 2f8:	c0 96       	adiw	r24, 0x30	; 48
 2fa:	90 93 1f 02 	sts	0x021F, r25	; 0x80021f <million+0x1>
 2fe:	80 93 1e 02 	sts	0x021E, r24	; 0x80021e <million>
 302:	88 df       	rcall	.-240    	; 0x214 <_Z11lcd_wr_charc>
 304:	98 01       	movw	r18, r16
 306:	36 95       	lsr	r19
 308:	27 95       	ror	r18
 30a:	36 95       	lsr	r19
 30c:	27 95       	ror	r18
 30e:	36 95       	lsr	r19
 310:	27 95       	ror	r18
 312:	a5 ec       	ldi	r26, 0xC5	; 197
 314:	b0 e2       	ldi	r27, 0x20	; 32
 316:	62 d1       	rcall	.+708    	; 0x5dc <__umulhisi3>
 318:	ac 01       	movw	r20, r24
 31a:	52 95       	swap	r21
 31c:	42 95       	swap	r20
 31e:	4f 70       	andi	r20, 0x0F	; 15
 320:	45 27       	eor	r20, r21
 322:	5f 70       	andi	r21, 0x0F	; 15
 324:	45 27       	eor	r20, r21
 326:	50 93 29 02 	sts	0x0229, r21	; 0x800229 <temp+0x1>
 32a:	40 93 28 02 	sts	0x0228, r20	; 0x800228 <temp>
 32e:	9a 01       	movw	r18, r20
 330:	ad ec       	ldi	r26, 0xCD	; 205
 332:	bc ec       	ldi	r27, 0xCC	; 204
 334:	53 d1       	rcall	.+678    	; 0x5dc <__umulhisi3>
 336:	96 95       	lsr	r25
 338:	87 95       	ror	r24
 33a:	96 95       	lsr	r25
 33c:	87 95       	ror	r24
 33e:	96 95       	lsr	r25
 340:	87 95       	ror	r24
 342:	9c 01       	movw	r18, r24
 344:	22 0f       	add	r18, r18
 346:	33 1f       	adc	r19, r19
 348:	88 0f       	add	r24, r24
 34a:	99 1f       	adc	r25, r25
 34c:	88 0f       	add	r24, r24
 34e:	99 1f       	adc	r25, r25
 350:	88 0f       	add	r24, r24
 352:	99 1f       	adc	r25, r25
 354:	82 0f       	add	r24, r18
 356:	93 1f       	adc	r25, r19
 358:	9a 01       	movw	r18, r20
 35a:	28 1b       	sub	r18, r24
 35c:	39 0b       	sbc	r19, r25
 35e:	c9 01       	movw	r24, r18
 360:	c0 96       	adiw	r24, 0x30	; 48
 362:	90 93 21 02 	sts	0x0221, r25	; 0x800221 <thousand+0x1>
 366:	80 93 20 02 	sts	0x0220, r24	; 0x800220 <thousand>
 36a:	54 df       	rcall	.-344    	; 0x214 <_Z11lcd_wr_charc>
 36c:	03 c0       	rjmp	.+6      	; 0x374 <_Z9lcd_printccji+0xbe>
 36e:	c3 30       	cpi	r28, 0x03	; 3
 370:	d1 05       	cpc	r29, r1
 372:	79 f5       	brne	.+94     	; 0x3d2 <_Z9lcd_printccji+0x11c>
 374:	98 01       	movw	r18, r16
 376:	36 95       	lsr	r19
 378:	27 95       	ror	r18
 37a:	36 95       	lsr	r19
 37c:	27 95       	ror	r18
 37e:	ab e7       	ldi	r26, 0x7B	; 123
 380:	b4 e1       	ldi	r27, 0x14	; 20
 382:	2c d1       	rcall	.+600    	; 0x5dc <__umulhisi3>
 384:	ac 01       	movw	r20, r24
 386:	56 95       	lsr	r21
 388:	47 95       	ror	r20
 38a:	50 93 29 02 	sts	0x0229, r21	; 0x800229 <temp+0x1>
 38e:	40 93 28 02 	sts	0x0228, r20	; 0x800228 <temp>
 392:	9a 01       	movw	r18, r20
 394:	ad ec       	ldi	r26, 0xCD	; 205
 396:	bc ec       	ldi	r27, 0xCC	; 204
 398:	21 d1       	rcall	.+578    	; 0x5dc <__umulhisi3>
 39a:	96 95       	lsr	r25
 39c:	87 95       	ror	r24
 39e:	96 95       	lsr	r25
 3a0:	87 95       	ror	r24
 3a2:	96 95       	lsr	r25
 3a4:	87 95       	ror	r24
 3a6:	9c 01       	movw	r18, r24
 3a8:	22 0f       	add	r18, r18
 3aa:	33 1f       	adc	r19, r19
 3ac:	88 0f       	add	r24, r24
 3ae:	99 1f       	adc	r25, r25
 3b0:	88 0f       	add	r24, r24
 3b2:	99 1f       	adc	r25, r25
 3b4:	88 0f       	add	r24, r24
 3b6:	99 1f       	adc	r25, r25
 3b8:	82 0f       	add	r24, r18
 3ba:	93 1f       	adc	r25, r19
 3bc:	9a 01       	movw	r18, r20
 3be:	28 1b       	sub	r18, r24
 3c0:	39 0b       	sbc	r19, r25
 3c2:	c9 01       	movw	r24, r18
 3c4:	c0 96       	adiw	r24, 0x30	; 48
 3c6:	90 93 23 02 	sts	0x0223, r25	; 0x800223 <hundred+0x1>
 3ca:	80 93 22 02 	sts	0x0222, r24	; 0x800222 <hundred>
 3ce:	22 df       	rcall	.-444    	; 0x214 <_Z11lcd_wr_charc>
 3d0:	04 c0       	rjmp	.+8      	; 0x3da <_Z9lcd_printccji+0x124>
 3d2:	c2 30       	cpi	r28, 0x02	; 2
 3d4:	d1 05       	cpc	r29, r1
 3d6:	09 f0       	breq	.+2      	; 0x3da <_Z9lcd_printccji+0x124>
 3d8:	55 c0       	rjmp	.+170    	; 0x484 <__LOCK_REGION_LENGTH__+0x84>
 3da:	98 01       	movw	r18, r16
 3dc:	ad ec       	ldi	r26, 0xCD	; 205
 3de:	bc ec       	ldi	r27, 0xCC	; 204
 3e0:	fd d0       	rcall	.+506    	; 0x5dc <__umulhisi3>
 3e2:	ac 01       	movw	r20, r24
 3e4:	56 95       	lsr	r21
 3e6:	47 95       	ror	r20
 3e8:	56 95       	lsr	r21
 3ea:	47 95       	ror	r20
 3ec:	56 95       	lsr	r21
 3ee:	47 95       	ror	r20
 3f0:	50 93 29 02 	sts	0x0229, r21	; 0x800229 <temp+0x1>
 3f4:	40 93 28 02 	sts	0x0228, r20	; 0x800228 <temp>
 3f8:	9a 01       	movw	r18, r20
 3fa:	f0 d0       	rcall	.+480    	; 0x5dc <__umulhisi3>
 3fc:	96 95       	lsr	r25
 3fe:	87 95       	ror	r24
 400:	96 95       	lsr	r25
 402:	87 95       	ror	r24
 404:	96 95       	lsr	r25
 406:	87 95       	ror	r24
 408:	9c 01       	movw	r18, r24
 40a:	22 0f       	add	r18, r18
 40c:	33 1f       	adc	r19, r19
 40e:	88 0f       	add	r24, r24
 410:	99 1f       	adc	r25, r25
 412:	88 0f       	add	r24, r24
 414:	99 1f       	adc	r25, r25
 416:	88 0f       	add	r24, r24
 418:	99 1f       	adc	r25, r25
 41a:	82 0f       	add	r24, r18
 41c:	93 1f       	adc	r25, r19
 41e:	9a 01       	movw	r18, r20
 420:	28 1b       	sub	r18, r24
 422:	39 0b       	sbc	r19, r25
 424:	c9 01       	movw	r24, r18
 426:	c0 96       	adiw	r24, 0x30	; 48
 428:	90 93 25 02 	sts	0x0225, r25	; 0x800225 <tens+0x1>
 42c:	80 93 24 02 	sts	0x0224, r24	; 0x800224 <tens>
 430:	f1 de       	rcall	.-542    	; 0x214 <_Z11lcd_wr_charc>
 432:	98 01       	movw	r18, r16
 434:	ad ec       	ldi	r26, 0xCD	; 205
 436:	bc ec       	ldi	r27, 0xCC	; 204
 438:	d1 d0       	rcall	.+418    	; 0x5dc <__umulhisi3>
 43a:	96 95       	lsr	r25
 43c:	87 95       	ror	r24
 43e:	96 95       	lsr	r25
 440:	87 95       	ror	r24
 442:	96 95       	lsr	r25
 444:	87 95       	ror	r24
 446:	9c 01       	movw	r18, r24
 448:	22 0f       	add	r18, r18
 44a:	33 1f       	adc	r19, r19
 44c:	88 0f       	add	r24, r24
 44e:	99 1f       	adc	r25, r25
 450:	88 0f       	add	r24, r24
 452:	99 1f       	adc	r25, r25
 454:	88 0f       	add	r24, r24
 456:	99 1f       	adc	r25, r25
 458:	82 0f       	add	r24, r18
 45a:	93 1f       	adc	r25, r19
 45c:	98 01       	movw	r18, r16
 45e:	28 1b       	sub	r18, r24
 460:	39 0b       	sbc	r19, r25
 462:	c9 01       	movw	r24, r18
 464:	c0 96       	adiw	r24, 0x30	; 48
 466:	90 93 27 02 	sts	0x0227, r25	; 0x800227 <unit+0x1>
 46a:	80 93 26 02 	sts	0x0226, r24	; 0x800226 <unit>
 46e:	d2 de       	rcall	.-604    	; 0x214 <_Z11lcd_wr_charc>
 470:	26 97       	sbiw	r28, 0x06	; 6
 472:	64 f0       	brlt	.+24     	; 0x48c <__LOCK_REGION_LENGTH__+0x8c>
 474:	85 e4       	ldi	r24, 0x45	; 69
 476:	ce de       	rcall	.-612    	; 0x214 <_Z11lcd_wr_charc>
 478:	09 c0       	rjmp	.+18     	; 0x48c <__LOCK_REGION_LENGTH__+0x8c>
 47a:	c4 30       	cpi	r28, 0x04	; 4
 47c:	d1 05       	cpc	r29, r1
 47e:	09 f0       	breq	.+2      	; 0x482 <__LOCK_REGION_LENGTH__+0x82>
 480:	76 cf       	rjmp	.-276    	; 0x36e <_Z9lcd_printccji+0xb8>
 482:	40 cf       	rjmp	.-384    	; 0x304 <_Z9lcd_printccji+0x4e>
 484:	c1 30       	cpi	r28, 0x01	; 1
 486:	d1 05       	cpc	r29, r1
 488:	99 f7       	brne	.-26     	; 0x470 <__LOCK_REGION_LENGTH__+0x70>
 48a:	d3 cf       	rjmp	.-90     	; 0x432 <__LOCK_REGION_LENGTH__+0x32>
 48c:	df 91       	pop	r29
 48e:	cf 91       	pop	r28
 490:	1f 91       	pop	r17
 492:	0f 91       	pop	r16
 494:	08 95       	ret

00000496 <_Z9run_motorv>:
 496:	8f ef       	ldi	r24, 0xFF	; 255
 498:	81 b9       	out	0x01, r24	; 1
 49a:	80 93 0a 01 	sts	0x010A, r24	; 0x80010a <__TEXT_REGION_LENGTH__+0x70010a>
 49e:	81 ea       	ldi	r24, 0xA1	; 161
 4a0:	80 93 20 01 	sts	0x0120, r24	; 0x800120 <__TEXT_REGION_LENGTH__+0x700120>
 4a4:	8f ef       	ldi	r24, 0xFF	; 255
 4a6:	90 e0       	ldi	r25, 0x00	; 0
 4a8:	90 93 29 01 	sts	0x0129, r25	; 0x800129 <__TEXT_REGION_LENGTH__+0x700129>
 4ac:	80 93 28 01 	sts	0x0128, r24	; 0x800128 <__TEXT_REGION_LENGTH__+0x700128>
 4b0:	90 93 2b 01 	sts	0x012B, r25	; 0x80012b <__TEXT_REGION_LENGTH__+0x70012b>
 4b4:	80 93 2a 01 	sts	0x012A, r24	; 0x80012a <__TEXT_REGION_LENGTH__+0x70012a>
 4b8:	8d e0       	ldi	r24, 0x0D	; 13
 4ba:	80 93 21 01 	sts	0x0121, r24	; 0x800121 <__TEXT_REGION_LENGTH__+0x700121>
 4be:	08 95       	ret

000004c0 <_Z13encoder_setupv>:
 4c0:	1d b8       	out	0x0d, r1	; 13
 4c2:	8a e0       	ldi	r24, 0x0A	; 10
 4c4:	80 93 6a 00 	sts	0x006A, r24	; 0x80006a <__TEXT_REGION_LENGTH__+0x70006a>
 4c8:	80 e3       	ldi	r24, 0x30	; 48
 4ca:	8d bb       	out	0x1d, r24	; 29
 4cc:	78 94       	sei
 4ce:	08 95       	ret

000004d0 <_Z9lcd_setupv>:
 4d0:	87 ef       	ldi	r24, 0xF7	; 247
 4d2:	87 b9       	out	0x07, r24	; 7
 4d4:	27 de       	rcall	.-946    	; 0x124 <_Z12lcd_set_4bitv>
 4d6:	8e ce       	rjmp	.-740    	; 0x1f4 <_Z8lcd_initv>
 4d8:	08 95       	ret

000004da <_Z9left_turnv>:
 4da:	12 b8       	out	0x02, r1	; 2
 4dc:	2f ef       	ldi	r18, 0xFF	; 255
 4de:	8f e7       	ldi	r24, 0x7F	; 127
 4e0:	96 e1       	ldi	r25, 0x16	; 22
 4e2:	21 50       	subi	r18, 0x01	; 1
 4e4:	80 40       	sbci	r24, 0x00	; 0
 4e6:	90 40       	sbci	r25, 0x00	; 0
 4e8:	e1 f7       	brne	.-8      	; 0x4e2 <_Z9left_turnv+0x8>
 4ea:	00 c0       	rjmp	.+0      	; 0x4ec <_Z9left_turnv+0x12>
 4ec:	00 00       	nop
 4ee:	84 e0       	ldi	r24, 0x04	; 4
 4f0:	82 b9       	out	0x02, r24	; 2
 4f2:	10 92 1b 02 	sts	0x021B, r1	; 0x80021b <__data_end+0x1>
 4f6:	10 92 1a 02 	sts	0x021A, r1	; 0x80021a <__data_end>
 4fa:	10 92 1d 02 	sts	0x021D, r1	; 0x80021d <lmotor+0x1>
 4fe:	10 92 1c 02 	sts	0x021C, r1	; 0x80021c <lmotor>
 502:	80 91 1a 02 	lds	r24, 0x021A	; 0x80021a <__data_end>
 506:	90 91 1b 02 	lds	r25, 0x021B	; 0x80021b <__data_end+0x1>
 50a:	84 97       	sbiw	r24, 0x24	; 36
 50c:	d4 f3       	brlt	.-12     	; 0x502 <_Z9left_turnv+0x28>
 50e:	10 92 1b 02 	sts	0x021B, r1	; 0x80021b <__data_end+0x1>
 512:	10 92 1a 02 	sts	0x021A, r1	; 0x80021a <__data_end>
 516:	08 95       	ret

00000518 <main>:
}

int main(void)
{
	/* Replace with your application code */
	lcd_setup();
 518:	db df       	rcall	.-74     	; 0x4d0 <_Z9lcd_setupv>
	encoder_setup();
 51a:	d2 df       	rcall	.-92     	; 0x4c0 <_Z13encoder_setupv>
	while(rmotor<=35);
	rmotor=0;
}
void forward()
{
	PORTA = (1<<PA1) | (1<<PA2); //go fwd
 51c:	c6 e0       	ldi	r28, 0x06	; 6
	/* Replace with your application code */
	lcd_setup();
	encoder_setup();
	while (1)
	{
		run_motor();
 51e:	bb df       	rcall	.-138    	; 0x496 <_Z9run_motorv>
		lcd_cursor(1,1);
 520:	61 e0       	ldi	r22, 0x01	; 1
 522:	81 e0       	ldi	r24, 0x01	; 1
 524:	ad de       	rcall	.-678    	; 0x280 <_Z10lcd_cursorcc>
		lcd_string("left motor:");
 526:	80 e0       	ldi	r24, 0x00	; 0
 528:	92 e0       	ldi	r25, 0x02	; 2
 52a:	9c de       	rcall	.-712    	; 0x264 <_Z10lcd_stringPc>
 52c:	40 91 1c 02 	lds	r20, 0x021C	; 0x80021c <lmotor>
		lcd_print(1,12,lmotor,4);
 530:	50 91 1d 02 	lds	r21, 0x021D	; 0x80021d <lmotor+0x1>
 534:	24 e0       	ldi	r18, 0x04	; 4
 536:	30 e0       	ldi	r19, 0x00	; 0
 538:	6c e0       	ldi	r22, 0x0C	; 12
 53a:	81 e0       	ldi	r24, 0x01	; 1
 53c:	bc de       	rcall	.-648    	; 0x2b6 <_Z9lcd_printccji>
		lcd_cursor(2,1);
 53e:	61 e0       	ldi	r22, 0x01	; 1
 540:	82 e0       	ldi	r24, 0x02	; 2
 542:	9e de       	rcall	.-708    	; 0x280 <_Z10lcd_cursorcc>
 544:	8c e0       	ldi	r24, 0x0C	; 12
		lcd_string("right motor:");
 546:	92 e0       	ldi	r25, 0x02	; 2
 548:	8d de       	rcall	.-742    	; 0x264 <_Z10lcd_stringPc>
 54a:	40 91 1a 02 	lds	r20, 0x021A	; 0x80021a <__data_end>
		lcd_print(2,12,rmotor,4);
 54e:	50 91 1b 02 	lds	r21, 0x021B	; 0x80021b <__data_end+0x1>
 552:	24 e0       	ldi	r18, 0x04	; 4
 554:	30 e0       	ldi	r19, 0x00	; 0
 556:	6c e0       	ldi	r22, 0x0C	; 12
 558:	82 e0       	ldi	r24, 0x02	; 2
 55a:	ad de       	rcall	.-678    	; 0x2b6 <_Z9lcd_printccji>
 55c:	80 91 1c 02 	lds	r24, 0x021C	; 0x80021c <lmotor>
		if(lmotor>300 || rmotor>300)
 560:	90 91 1d 02 	lds	r25, 0x021D	; 0x80021d <lmotor+0x1>
 564:	8d 32       	cpi	r24, 0x2D	; 45
 566:	91 40       	sbci	r25, 0x01	; 1
 568:	3c f4       	brge	.+14     	; 0x578 <main+0x60>
 56a:	80 91 1a 02 	lds	r24, 0x021A	; 0x80021a <__data_end>
 56e:	90 91 1b 02 	lds	r25, 0x021B	; 0x80021b <__data_end+0x1>
 572:	8d 32       	cpi	r24, 0x2D	; 45
 574:	91 40       	sbci	r25, 0x01	; 1
 576:	14 f0       	brlt	.+4      	; 0x57c <main+0x64>
 578:	b0 df       	rcall	.-160    	; 0x4da <_Z9left_turnv>
		{
			left_turn();
 57a:	d1 cf       	rjmp	.-94     	; 0x51e <main+0x6>
 57c:	c2 b9       	out	0x02, r28	; 2
 57e:	cf cf       	rjmp	.-98     	; 0x51e <main+0x6>

00000580 <__vector_5>:
	while(rmotor<=35);
	rmotor=0;
}
void forward()
{
	PORTA = (1<<PA1) | (1<<PA2); //go fwd
 580:	1f 92       	push	r1
 582:	0f 92       	push	r0
		else forward();
		
	}
}
ISR(INT4_vect)
{
 584:	0f b6       	in	r0, 0x3f	; 63
 586:	0f 92       	push	r0
 588:	11 24       	eor	r1, r1
 58a:	8f 93       	push	r24
 58c:	9f 93       	push	r25
	lmotor++;
 58e:	80 91 1c 02 	lds	r24, 0x021C	; 0x80021c <lmotor>
 592:	90 91 1d 02 	lds	r25, 0x021D	; 0x80021d <lmotor+0x1>
 596:	01 96       	adiw	r24, 0x01	; 1
 598:	90 93 1d 02 	sts	0x021D, r25	; 0x80021d <lmotor+0x1>
 59c:	80 93 1c 02 	sts	0x021C, r24	; 0x80021c <lmotor>
}
 5a0:	9f 91       	pop	r25
 5a2:	8f 91       	pop	r24
 5a4:	0f 90       	pop	r0
 5a6:	0f be       	out	0x3f, r0	; 63
 5a8:	0f 90       	pop	r0
 5aa:	1f 90       	pop	r1
 5ac:	18 95       	reti

000005ae <__vector_6>:
ISR(INT5_vect)
{
 5ae:	1f 92       	push	r1
 5b0:	0f 92       	push	r0
 5b2:	0f b6       	in	r0, 0x3f	; 63
 5b4:	0f 92       	push	r0
 5b6:	11 24       	eor	r1, r1
 5b8:	8f 93       	push	r24
 5ba:	9f 93       	push	r25
	rmotor++;
 5bc:	80 91 1a 02 	lds	r24, 0x021A	; 0x80021a <__data_end>
 5c0:	90 91 1b 02 	lds	r25, 0x021B	; 0x80021b <__data_end+0x1>
 5c4:	01 96       	adiw	r24, 0x01	; 1
 5c6:	90 93 1b 02 	sts	0x021B, r25	; 0x80021b <__data_end+0x1>
 5ca:	80 93 1a 02 	sts	0x021A, r24	; 0x80021a <__data_end>
}
 5ce:	9f 91       	pop	r25
 5d0:	8f 91       	pop	r24
 5d2:	0f 90       	pop	r0
 5d4:	0f be       	out	0x3f, r0	; 63
 5d6:	0f 90       	pop	r0
 5d8:	1f 90       	pop	r1
 5da:	18 95       	reti

000005dc <__umulhisi3>:
 5dc:	a2 9f       	mul	r26, r18
 5de:	b0 01       	movw	r22, r0
 5e0:	b3 9f       	mul	r27, r19
 5e2:	c0 01       	movw	r24, r0
 5e4:	a3 9f       	mul	r26, r19
 5e6:	70 0d       	add	r23, r0
 5e8:	81 1d       	adc	r24, r1
 5ea:	11 24       	eor	r1, r1
 5ec:	91 1d       	adc	r25, r1
 5ee:	b2 9f       	mul	r27, r18
 5f0:	70 0d       	add	r23, r0
 5f2:	81 1d       	adc	r24, r1
 5f4:	11 24       	eor	r1, r1
 5f6:	91 1d       	adc	r25, r1
 5f8:	08 95       	ret

000005fa <_exit>:
 5fa:	f8 94       	cli

000005fc <__stop_program>:
 5fc:	ff cf       	rjmp	.-2      	; 0x5fc <__stop_program>
