S0110000335F4C43445F5744312E7372656383
S113000071C000008EC000008CC000008AC00000D7
S113001088C0000086C0000084C0000082C00000C8
S113002080C000007EC000007CC000007AC00000D8
S113003078C0000076C0000074C0000072C00000E8
S113004070C000006EC000006CC000006AC00000F8
S113005068C0000066C0000064C0000062C0000008
S113006060C000005EC000005CC000005AC0000018
S113007058C0000056C0000054C0000052C0000028
S113008050C000004EC000004CC000004AC0000038
S113009048C0000046C0000044C0000042C0000048
S11300A040C000003EC000003CC000003AC0000058
S11300B038C0000036C0000034C0000032C0000068
S11300C030C000002EC000002CC000002AC0000078
S11300D028C0000026C0000024C0000022C0000088
S11300E020C0000011241FBECFEFD1E2DEBFCDBF80
S11300F000E00CBF12E0A0E0B2E0E8EEF2E000E0C5
S11301000BBF02C007900D92AC31B107D9F722E0C2
S1130110ACE1B2E001C01D92AC31B207E1F7C8D046
S1130120E1C06ECF86E69EE00197F1F700004098AB
S1130130419880E388B9429AEFEFF7E43197F1F7F9
S113014000C000004298E6E6FEE03197F1F70000B7
S11301504098419888B9429AEFEFF7E43197F1F764
S113016000C000004298E6E6FEE03197F1F7000097
S11301704098419888B9429A8FEF97E40197F1F734
S113018000C000004298E6E6FEE03197F1F7000077
S11301904098419880E288B9429A8FEF97E401979A
S11301A0F1F700C000004298089598B19F7098B983
S11301B098B1282F207F922B98B940984198429A61
S11301C0EFEFF7E43197F1F700C00000429898B1DF
S11301D09F7098B998B18295807F892B88B940988F
S11301E04198429A8FEF97E40197F1F700C000001D
S11301F04298089586E69EE00197F1F7000088E2B0
S1130200D4DF81E0D2DF86E0D0DF8EE0CEDF80E88D
S1130210CCCF089598B19F7098B998B1282F207FBA
S1130220922B98B9409A4198429AEFEFF7E43197AC
S1130230F1F700C00000429898B19F7098B998B146
S11302408295807F892B88B9409A4198429A8FEF92
S113025097E40197F1F700C0000042980895CF9306
S1130260DF93EC018881882329F02196D3DF8991DB
S11302708111FCCFDF91CF910895823069F018F499
S1130280813031F00895833059F0843069F0089555
S11302908FE7860F8ACF08958FEB860F86CF089558
S11302A083E9860F82CF089583ED860F7ECF08956C
S11302B087EF87B937DF9EDF61E081E0DEDF80E032
S11302C092E0CDDF64E082E0D8DF80E192E0C7DF36
S11302D02FEF8FEF99E5215080409040E1F700C067
S10B02E00000EACFF894FFCFFF
S11302E82057454C434F4D4520544F205448450012
S10F02F820574F524B53484F5020000039
S9030000FC
