S015000049525F73656E736F725F7764332E737265630E
S113000071C0000081C000007FC000007DC00000FE
S11300107BC0000079C0000077C0000075C00000FC
S113002073C0000071C000006FC000006DC000000C
S11300306BC0000069C0000067C0000065C000001C
S113004063C0000061C000005FC000005DC000002C
S11300505BC0000059C0000057C0000055C000003C
S113006053C0000051C000004FC000004DC000004C
S11300704BC000001CC2000047C0000045C0000087
S113008043C0000041C000003FC000003DC000006C
S11300903BC0000039C0000037C0000035C000007C
S11300A033C0000031C000002FC000002DC000008C
S11300B02BC0000029C0000027C0000025C000009C
S11300C023C0000021C000001FC000001DC00000AC
S11300D01BC0000019C0000017C0000015C00000BC
S11300E013C0000011241FBECFEFD1E2DEBFCDBF8D
S11300F000E00CBF22E0A0E0B2E001C01D92A831F4
S1130100B207E1F7BDD19CC27BCF86E69EE00197A2
S1130110F1F700004098419880E388B9429AEFEFE4
S1130120F7E43197F1F700C000004298E6E6FEE0FC
S11301303197F1F700004098419888B9429AEFEF5F
S1130140F7E43197F1F700C000004298E6E6FEE0DC
S11301503197F1F700004098419888B9429A8FEF9F
S113016097E40197F1F700C000004298E6E6FEE04C
S11301703197F1F700004098419880E288B9429A9B
S11301808FEF97E40197F1F700C0000042980895BB
S113019098B19F7098B998B1282F207F922B98B965
S11301A040984198429AEFEFF7E43197F1F700C095
S11301B00000429898B19F7098B998B18295807F59
S11301C0892B88B940984198429A8FEF97E4019718
S11301D0F1F700C000004298089586E69EE001977A
S11301E0F1F7000088E2D4DF81E0D2DF86E0D0DFDF
S11301F08EE0CEDF80E8CCCF089598B19F7098B997
S113020098B1282F207F922B98B9409A4198429A0E
S1130210EFEFF7E43197F1F700C00000429898B18E
S11302209F7098B998B18295807F892B88B9409A3C
S11302304198429A8FEF97E40197F1F700C00000CC
S11302404298089580E8A4CF0895823069F018F4A4
S1130250813031F00895833059F0843069F0089585
S11302608FE7860F95CF08958FEB860F91CF089572
S113027083E9860F8DCF089583ED860F89CF089586
S11302800F931F93CF93DF938A01E901882311F021
S1130290611102C0D7DF01C0D8DFC530D10509F034
S11302A0D1C09801329522952F7023273F702327C0
S11302B0A7E4B3E0B6D196958795969587959695DC
S11302C08795C09690930D0280930C0296DF980157
S11302D0369527953695279536952795A5ECB0E262
S11302E0A0D1AC01529542954F7045275F704527C8
S11302F050931702409316029A01ADECBCEC91D1D5
S11303009695879596958795969587959C01220F46
S1130310331F880F991F880F991F880F991F820F09
S1130320931F9A01281B390BC901C09690930F02A1
S113033080930E0262DF03C0C330D10579F59801C2
S11303403695279536952795ABE7B4E16AD1AC018C
S11303505695479550931702409316029A01ADECB7
S1130360BCEC5FD1969587959695879596958795DC
S11303709C01220F331F880F991F880F991F880F24
S1130380991F820F931F9A01281B390BC901C0962C
S1130390909311028093100230DF04C0C230D10563
S11303A009F055C09801ADECBCEC3BD1AC015695BD
S11303B04795569547955695479550931702409300
S11303C016029A012ED196958795969587959695BE
S11303D087959C01220F331F880F991F880F991F3F
S11303E0880F991F820F931F9A01281B390BC9018B
S11303F0C0969093130280931202FFDE9801ADEC35
S1130400BCEC0FD19695879596958795969587958B
S11304109C01220F331F880F991F880F991F880F83
S1130420991F820F931F9801281B390BC901C0968D
S11304309093150280931402E0DE269764F085E41D
S1130440DCDE09C0C430D10509F076CF40CFC1301D
S1130450D10599F7D3CFDF91CF911F910F910895D3
S113046087EF87B952DEB9CE089510BA109207010A
S113047084E480937C008FEE80937A0078940895CE
S1130480EFDFF3DFC1E000E010E0F801EE0FFF1F43
S1130490E050FE4F4081518122E030E06C2F81E03A
S11304A0EFDE0F5F1F4FCD5FC03161F3EECF1F92C0
S11304B00F920FB60F9211240BB60F928F939F9346
S11304C0EF93FF9380910A0290910B02892BD1F450
S11304D0E0910A02F0910B028091780090917900EA
S11304E0EE0FFF1FE050FE4F91838083EAE7F0E0B8
S11304F080818160808381E090E090930B028093FF
S11305000A0284C080910A0290910B020197E9F4D7
S1130510E0910A02F0910B028091780090917900A9
S1130520EE0FFF1FE050FE4F91838083EAE7F0E077
S113053080818E7F808380818260808382E090E0EE
S113054090930B0280930A0261C080910A029091F9
S11305500B020297D1F4E0910A02F0910B02809110
S1130560780090917900EE0FFF1FE050FE4F9183C9
S11305708083EAE7F0E080818160808383E090E01B
S113058090930B0280930A0241C080910A029091D9
S11305900B020397F9F4E0910A02F0910B028091A7
S11305A0780090917900EE0FFF1FE050FE4F918389
S11305B08083EAE7F0E08081887F8083EBE7F0E0E6
S11305C080818860808384E090E090930B02809324
S11305D00A021CC0E0910A02F0910B02809178009B
S11305E090917900EE0FFF1FE050FE4F91838083BE
S11305F0EBE7F0E08081877F8083EAE7F0E08081A9
S11306008460808310920B0210920A02FF91EF9192
S11306109F918F910F900BBE0F900FBE0F901F9064
S11306201895A29FB001B39FC001A39F700D811DB7
S11306301124911DB29F700D811D1124911D0895E7
S1070640F894FFCF58
S9030000FC
