
CTC_wd2.elf:     file format elf32-avr

Sections:
Idx Name          Size      VMA       LMA       File off  Algn
  0 .data         00000000  00800200  00800200  000001c4  2**0
                  CONTENTS, ALLOC, LOAD, DATA
  1 .text         00000170  00000000  00000000  00000054  2**1
                  CONTENTS, ALLOC, LOAD, READONLY, CODE
  2 .comment      00000030  00000000  00000000  000001c4  2**0
                  CONTENTS, READONLY
  3 .note.gnu.avr.deviceinfo 00000040  00000000  00000000  000001f4  2**2
                  CONTENTS, READONLY
  4 .debug_aranges 00000030  00000000  00000000  00000234  2**0
                  CONTENTS, READONLY, DEBUGGING
  5 .debug_info   00000d0e  00000000  00000000  00000264  2**0
                  CONTENTS, READONLY, DEBUGGING
  6 .debug_abbrev 00000c29  00000000  00000000  00000f72  2**0
                  CONTENTS, READONLY, DEBUGGING
  7 .debug_line   00000377  00000000  00000000  00001b9b  2**0
                  CONTENTS, READONLY, DEBUGGING
  8 .debug_frame  00000058  00000000  00000000  00001f14  2**2
                  CONTENTS, READONLY, DEBUGGING
  9 .debug_str    000005bf  00000000  00000000  00001f6c  2**0
                  CONTENTS, READONLY, DEBUGGING
 10 .debug_loc    00000049  00000000  00000000  0000252b  2**0
                  CONTENTS, READONLY, DEBUGGING
 11 .debug_ranges 00000020  00000000  00000000  00002574  2**0
                  CONTENTS, READONLY, DEBUGGING

Disassembly of section .text:

00000000 <__vectors>:
   0:	71 c0       	rjmp	.+226    	; 0xe4 <__ctors_end>
   2:	00 00       	nop
   4:	79 c0       	rjmp	.+242    	; 0xf8 <__bad_interrupt>
   6:	00 00       	nop
   8:	77 c0       	rjmp	.+238    	; 0xf8 <__bad_interrupt>
   a:	00 00       	nop
   c:	75 c0       	rjmp	.+234    	; 0xf8 <__bad_interrupt>
   e:	00 00       	nop
  10:	73 c0       	rjmp	.+230    	; 0xf8 <__bad_interrupt>
  12:	00 00       	nop
  14:	71 c0       	rjmp	.+226    	; 0xf8 <__bad_interrupt>
  16:	00 00       	nop
  18:	6f c0       	rjmp	.+222    	; 0xf8 <__bad_interrupt>
  1a:	00 00       	nop
  1c:	6d c0       	rjmp	.+218    	; 0xf8 <__bad_interrupt>
  1e:	00 00       	nop
  20:	6b c0       	rjmp	.+214    	; 0xf8 <__bad_interrupt>
  22:	00 00       	nop
  24:	69 c0       	rjmp	.+210    	; 0xf8 <__bad_interrupt>
  26:	00 00       	nop
  28:	67 c0       	rjmp	.+206    	; 0xf8 <__bad_interrupt>
  2a:	00 00       	nop
  2c:	65 c0       	rjmp	.+202    	; 0xf8 <__bad_interrupt>
  2e:	00 00       	nop
  30:	63 c0       	rjmp	.+198    	; 0xf8 <__bad_interrupt>
  32:	00 00       	nop
  34:	61 c0       	rjmp	.+194    	; 0xf8 <__bad_interrupt>
  36:	00 00       	nop
  38:	5f c0       	rjmp	.+190    	; 0xf8 <__bad_interrupt>
  3a:	00 00       	nop
  3c:	5d c0       	rjmp	.+186    	; 0xf8 <__bad_interrupt>
  3e:	00 00       	nop
  40:	5b c0       	rjmp	.+182    	; 0xf8 <__bad_interrupt>
  42:	00 00       	nop
  44:	81 c0       	rjmp	.+258    	; 0x148 <__vector_17>
  46:	00 00       	nop
  48:	57 c0       	rjmp	.+174    	; 0xf8 <__bad_interrupt>
  4a:	00 00       	nop
  4c:	55 c0       	rjmp	.+170    	; 0xf8 <__bad_interrupt>
  4e:	00 00       	nop
  50:	53 c0       	rjmp	.+166    	; 0xf8 <__bad_interrupt>
  52:	00 00       	nop
  54:	51 c0       	rjmp	.+162    	; 0xf8 <__bad_interrupt>
  56:	00 00       	nop
  58:	4f c0       	rjmp	.+158    	; 0xf8 <__bad_interrupt>
  5a:	00 00       	nop
  5c:	4d c0       	rjmp	.+154    	; 0xf8 <__bad_interrupt>
  5e:	00 00       	nop
  60:	4b c0       	rjmp	.+150    	; 0xf8 <__bad_interrupt>
  62:	00 00       	nop
  64:	49 c0       	rjmp	.+146    	; 0xf8 <__bad_interrupt>
  66:	00 00       	nop
  68:	47 c0       	rjmp	.+142    	; 0xf8 <__bad_interrupt>
  6a:	00 00       	nop
  6c:	45 c0       	rjmp	.+138    	; 0xf8 <__bad_interrupt>
  6e:	00 00       	nop
  70:	43 c0       	rjmp	.+134    	; 0xf8 <__bad_interrupt>
  72:	00 00       	nop
  74:	41 c0       	rjmp	.+130    	; 0xf8 <__bad_interrupt>
  76:	00 00       	nop
  78:	3f c0       	rjmp	.+126    	; 0xf8 <__bad_interrupt>
  7a:	00 00       	nop
  7c:	3d c0       	rjmp	.+122    	; 0xf8 <__bad_interrupt>
  7e:	00 00       	nop
  80:	3b c0       	rjmp	.+118    	; 0xf8 <__bad_interrupt>
  82:	00 00       	nop
  84:	39 c0       	rjmp	.+114    	; 0xf8 <__bad_interrupt>
  86:	00 00       	nop
  88:	37 c0       	rjmp	.+110    	; 0xf8 <__bad_interrupt>
  8a:	00 00       	nop
  8c:	35 c0       	rjmp	.+106    	; 0xf8 <__bad_interrupt>
  8e:	00 00       	nop
  90:	33 c0       	rjmp	.+102    	; 0xf8 <__bad_interrupt>
  92:	00 00       	nop
  94:	31 c0       	rjmp	.+98     	; 0xf8 <__bad_interrupt>
  96:	00 00       	nop
  98:	2f c0       	rjmp	.+94     	; 0xf8 <__bad_interrupt>
  9a:	00 00       	nop
  9c:	2d c0       	rjmp	.+90     	; 0xf8 <__bad_interrupt>
  9e:	00 00       	nop
  a0:	2b c0       	rjmp	.+86     	; 0xf8 <__bad_interrupt>
  a2:	00 00       	nop
  a4:	29 c0       	rjmp	.+82     	; 0xf8 <__bad_interrupt>
  a6:	00 00       	nop
  a8:	27 c0       	rjmp	.+78     	; 0xf8 <__bad_interrupt>
  aa:	00 00       	nop
  ac:	25 c0       	rjmp	.+74     	; 0xf8 <__bad_interrupt>
  ae:	00 00       	nop
  b0:	23 c0       	rjmp	.+70     	; 0xf8 <__bad_interrupt>
  b2:	00 00       	nop
  b4:	21 c0       	rjmp	.+66     	; 0xf8 <__bad_interrupt>
  b6:	00 00       	nop
  b8:	1f c0       	rjmp	.+62     	; 0xf8 <__bad_interrupt>
  ba:	00 00       	nop
  bc:	1d c0       	rjmp	.+58     	; 0xf8 <__bad_interrupt>
  be:	00 00       	nop
  c0:	1b c0       	rjmp	.+54     	; 0xf8 <__bad_interrupt>
  c2:	00 00       	nop
  c4:	19 c0       	rjmp	.+50     	; 0xf8 <__bad_interrupt>
  c6:	00 00       	nop
  c8:	17 c0       	rjmp	.+46     	; 0xf8 <__bad_interrupt>
  ca:	00 00       	nop
  cc:	15 c0       	rjmp	.+42     	; 0xf8 <__bad_interrupt>
  ce:	00 00       	nop
  d0:	13 c0       	rjmp	.+38     	; 0xf8 <__bad_interrupt>
  d2:	00 00       	nop
  d4:	11 c0       	rjmp	.+34     	; 0xf8 <__bad_interrupt>
  d6:	00 00       	nop
  d8:	0f c0       	rjmp	.+30     	; 0xf8 <__bad_interrupt>
  da:	00 00       	nop
  dc:	0d c0       	rjmp	.+26     	; 0xf8 <__bad_interrupt>
  de:	00 00       	nop
  e0:	0b c0       	rjmp	.+22     	; 0xf8 <__bad_interrupt>
	...

000000e4 <__ctors_end>:
  e4:	11 24       	eor	r1, r1
  e6:	1f be       	out	0x3f, r1	; 63
  e8:	cf ef       	ldi	r28, 0xFF	; 255
  ea:	d1 e2       	ldi	r29, 0x21	; 33
  ec:	de bf       	out	0x3e, r29	; 62
  ee:	cd bf       	out	0x3d, r28	; 61
  f0:	00 e0       	ldi	r16, 0x00	; 0
  f2:	0c bf       	out	0x3c, r16	; 60
  f4:	15 d0       	rcall	.+42     	; 0x120 <main>
  f6:	3a c0       	rjmp	.+116    	; 0x16c <_exit>

000000f8 <__bad_interrupt>:
  f8:	83 cf       	rjmp	.-250    	; 0x0 <__vectors>

000000fa <_Z9CTC_setupv>:
#include <avr/interrupt.h>
#include <util/delay.h>

void CTC_setup()
{
	TCCR1A = (1<<COM1A1);
  fa:	80 e8       	ldi	r24, 0x80	; 128
  fc:	80 93 80 00 	sts	0x0080, r24	; 0x800080 <__TEXT_REGION_LENGTH__+0x700080>
	TIMSK1 = (1<<OCIE1A);
 100:	82 e0       	ldi	r24, 0x02	; 2
 102:	80 93 6f 00 	sts	0x006F, r24	; 0x80006f <__TEXT_REGION_LENGTH__+0x70006f>
	OCR1A = 14400;
 106:	80 e4       	ldi	r24, 0x40	; 64
 108:	98 e3       	ldi	r25, 0x38	; 56
 10a:	90 93 89 00 	sts	0x0089, r25	; 0x800089 <__TEXT_REGION_LENGTH__+0x700089>
 10e:	80 93 88 00 	sts	0x0088, r24	; 0x800088 <__TEXT_REGION_LENGTH__+0x700088>
	TCCR1B = (1<<WGM12)|(1<<CS10) | (1<<CS12);
 112:	8d e0       	ldi	r24, 0x0D	; 13
 114:	80 93 81 00 	sts	0x0081, r24	; 0x800081 <__TEXT_REGION_LENGTH__+0x700081>
	DDRC = 0xFF;	
 118:	8f ef       	ldi	r24, 0xFF	; 255
 11a:	87 b9       	out	0x07, r24	; 7
	sei();
 11c:	78 94       	sei
 11e:	08 95       	ret

00000120 <main>:
}

int main(void)
{
	CTC_setup();  
 120:	ec df       	rcall	.-40     	; 0xfa <_Z9CTC_setupv>
	DDRJ = 0xFF;
 122:	8f ef       	ldi	r24, 0xFF	; 255
 124:	80 93 04 01 	sts	0x0104, r24	; 0x800104 <__TEXT_REGION_LENGTH__+0x700104>
    /* Replace with your application code */
    while (1) 
    {
		PORTJ ^=(1<<0);
 128:	e5 e0       	ldi	r30, 0x05	; 5
 12a:	f1 e0       	ldi	r31, 0x01	; 1
 12c:	91 e0       	ldi	r25, 0x01	; 1
 12e:	80 81       	ld	r24, Z
 130:	89 27       	eor	r24, r25
 132:	80 83       	st	Z, r24
	#else
		//round up by default
		__ticks_dc = (uint32_t)(ceil(fabs(__tmp)));
	#endif

	__builtin_avr_delay_cycles(__ticks_dc);
 134:	2f ef       	ldi	r18, 0xFF	; 255
 136:	3f ef       	ldi	r19, 0xFF	; 255
 138:	8c e2       	ldi	r24, 0x2C	; 44
 13a:	21 50       	subi	r18, 0x01	; 1
 13c:	30 40       	sbci	r19, 0x00	; 0
 13e:	80 40       	sbci	r24, 0x00	; 0
 140:	e1 f7       	brne	.-8      	; 0x13a <main+0x1a>
 142:	00 c0       	rjmp	.+0      	; 0x144 <main+0x24>
 144:	00 00       	nop
 146:	f3 cf       	rjmp	.-26     	; 0x12e <main+0xe>

00000148 <__vector_17>:
		_delay_ms(1000);
    }
}

ISR(TIMER1_COMPA_vect)
{
 148:	1f 92       	push	r1
 14a:	0f 92       	push	r0
 14c:	0f b6       	in	r0, 0x3f	; 63
 14e:	0f 92       	push	r0
 150:	11 24       	eor	r1, r1
 152:	8f 93       	push	r24
 154:	9f 93       	push	r25
	PORTC ^= (1<<3);
 156:	98 b1       	in	r25, 0x08	; 8
 158:	88 e0       	ldi	r24, 0x08	; 8
 15a:	89 27       	eor	r24, r25
 15c:	88 b9       	out	0x08, r24	; 8
}
 15e:	9f 91       	pop	r25
 160:	8f 91       	pop	r24
 162:	0f 90       	pop	r0
 164:	0f be       	out	0x3f, r0	; 63
 166:	0f 90       	pop	r0
 168:	1f 90       	pop	r1
 16a:	18 95       	reti

0000016c <_exit>:
 16c:	f8 94       	cli

0000016e <__stop_program>:
 16e:	ff cf       	rjmp	.-2      	; 0x16e <__stop_program>
